:020000040800F2
:1000000000300020ED3800082138000823380008AF
:1000100025380008273800082938000800000000AB
:100020000000000000000000000000002B38000865
:100030002D380008000000002F3800083138000873
:100040003D3900083D3900083D3900083D390008B8
:100050003D3900083D3900083D3900083D390008A8
:100060003D3900083D3900083D3900083D39000898
:100070003D3900083D3900083D3900083D39000888
:100080003D39000839380008493800083D39000872
:100090003D3900083D3900083D3900083D39000868
:1000A0003D39000859380008693800083D39000812
:1000B0003D3900083D390008000000003D390008C6
:1000C0003D39000800000000000000003D39000834
:1000D000000000003D390008793800083D3900086B
:1000E000893800083D3900080000000000000000C9
:1000F0000000000000000000000000000000000000
:1001000000000000000000000000000000000000EF
:1001100000000000000000003D3900083D390008E3
:1001200000000000000000000000000000000000CF
:1001300000000000000000000000000000000000BF
:100140003D3900083D390008000000003D39000835
:100150003D3900083D3900083D3900083D390008A7
:100160003D3900083D390008000000000000000093
:10017000000000000000000000000000000000007F
:08018000000000003D390008F9
:1001900010B5054C237833B9044B13B10448AFF3C1
:1001A00000800123237010BDDC010020000000004E
:1001B000205A000808B5034B1BB103490348AFF3AD
:1001C000008008BD00000000E0010020205A000867
:1001D00081F0004102E000BF83F0004330B54FEAF8
:1001E00041044FEA430594EA050F08BF90EA020F65
:1001F0001FBF54EA000C55EA020C7FEA645C7FEAF8
:10020000655C00F0E2804FEA5454D4EB5555B8BF1A
:100210006D420CDD2C4480EA020281EA030382EA8B
:10022000000083EA010180EA020281EA0303362D1D
:1002300088BF30BD11F0004F4FEA01314FF4801CF0
:100240004CEA113102D0404261EB410113F0004F02
:100250004FEA03334CEA133302D0524263EB4303B9
:1002600094EA050F00F0A780A4F10104D5F1200E57
:100270000DDB02FA0EFC22FA05F2801841F10001B2
:1002800003FA0EF2801843FA05F359410EE0A5F186
:1002900020050EF1200E012A03FA0EFC28BF4CF0B7
:1002A000020C43FA05F3C01851EBE37101F000456D
:1002B00007D54FF0000EDCF1000C7EEB00006EEB7A
:1002C0000101B1F5801F1BD3B1F5001F0CD3490804
:1002D0005FEA30004FEA3C0C04F101044FEA44525B
:1002E00012F5800F80F09A80BCF1004F08BF5FEAE2
:1002F000500C50F1000041EB045141EA050130BDC2
:100300005FEA4C0C404141EB010111F4801FA4F164
:100310000104E9D191F0000F04BF01460020B1FAB9
:1003200081F308BF2033A3F10B03B3F120020CDAF1
:100330000C3208DD02F1140CC2F10C0201FA0CF0CF
:1003400021FA02F10CE002F11402D8BFC2F1200C34
:1003500001FA02F120FA0CFCDCBF41EA0C019040EA
:10036000E41AA2BF01EB0451294330BD6FEA040433
:100370001F3C1CDA0C340EDC04F11404C4F120021E
:1003800020FA04F001FA02F340EA030021FA04F330
:1003900045EA030130BDC4F10C04C4F1200220FA87
:1003A00002F001FA04F340EA0300294630BD21FAC5
:1003B00004F0294630BD94F0000F83F4801306BF8B
:1003C00081F480110134013D4EE77FEA645C18BF7F
:1003D0007FEA655C29D094EA050F08BF90EA020F16
:1003E00005D054EA000C04BF1946104630BD91EA0E
:1003F000030F1EBF0021002030BD5FEA545C05D111
:100400004000494128BF41F0004130BD14F580044F
:100410003CBF01F5801130BD01F0004545F0FE41C3
:1004200041F470014FF0000030BD7FEA645C1ABFF8
:10043000194610467FEA655C1CBF0B46024650EA2F
:10044000013406BF52EA033591EA030F41F400215B
:1004500030BD00BF90F0000F04BF0021704730B5E1
:100460004FF4806404F132044FF000054FF00001B6
:1004700050E700BF90F0000F04BF0021704730B577
:100480004FF4806404F1320410F0004548BF40424C
:100490004FF000013EE700BF42004FEAE2014FEAA1
:1004A00031014FEA02701FBF12F07F4393F07F4F7C
:1004B00081F06051704732F07F4208BF704793F07F
:1004C0007F4F04BF41F40021704730B54FF4607492
:1004D00001F0004521F000411CE700BF50EA010295
:1004E00008BF704730B54FF000050AE050EA01023E
:1004F00008BF704730B511F0004502D5404261EBAE
:1005000041014FF4806404F132045FEA915C3FF4EE
:10051000D8AE4FF003025FEADC0C18BF03325FEA8B
:10052000DC0C18BF033202EBDC02C2F1200300FA3C
:1005300003FC20FA02F001FA03FE40EA0E0021FA61
:1005400002F11444BDE600BF70B54FF0FF0C4CF44F
:10055000E06C1CEA11541DBF1CEA135594EA0C0F01
:1005600095EA0C0F00F0DEF82C4481EA030621EA3C
:100570004C5123EA4C5350EA013518BF52EA033577
:1005800041F4801143F4801338D0A0FB02CE4FF029
:100590000005E1FB02E506F00042E0FB03E54FF059
:1005A0000006E1FB03569CF0000F18BF4EF0010E51
:1005B000A4F1FF04B6F5007F64F5407404D25FEA4D
:1005C0004E0E6D4146EB060642EAC62141EA555100
:1005D0004FEAC52040EA5E504FEACE2EB4F1FD0C42
:1005E00088BFBCF5E06F1ED8BEF1004F08BF5FEAC0
:1005F000500E50F1000041EB045170BD06F0004672
:1006000046EA010140EA020081EA0301B4EB5C041E
:10061000C2BFD4EB0C0541EA045170BD41F4801116
:100620004FF0000E013C00F3AB8014F1360FDEBF3B
:10063000002001F0004170BDC4F10004203C35DA17
:100640000C341BDC04F11404C4F1200500FA05F39A
:1006500020FA04F001FA05F240EA020001F000423B
:1006600021F0004110EBD37021FA04F642EB0601B1
:100670005EEA430E08BF20EAD37070BDC4F10C04DB
:10068000C4F1200500FA04F320FA05F001FA04F29F
:1006900040EA020001F0004110EBD37041F100018B
:1006A0005EEA430E08BF20EAD37070BDC4F1200596
:1006B00000FA05F24EEA020E20FA04F301FA05F2FE
:1006C00043EA020321FA04F001F0004121FA04F2A6
:1006D00020EA020000EBD3705EEA430E08BF20EA76
:1006E000D37070BD94F0000F0FD101F000464000B0
:1006F00041EB010111F4801F08BF013CF7D041EA32
:10070000060195F0000F18BF704703F00046520035
:1007100043EB030313F4801F08BF013DF7D043EA06
:100720000603704794EA0C0F0CEA135518BF95EABC
:100730000C0F0CD050EA410618BF52EA4306D1D143
:1007400081EA030101F000414FF0000070BD50EA62
:10075000410606BF1046194652EA430619D094EAEC
:100760000C0F02D150EA013613D195EA0C0F05D1D6
:1007700052EA03361CBF104619460AD181EA03012A
:1007800001F0004141F0FE4141F470014FF00000E2
:1007900070BD41F0FE4141F4780170BD70B54FF07D
:1007A000FF0C4CF4E06C1CEA11541DBF1CEA1355FD
:1007B00094EA0C0F95EA0C0F00F0A7F8A4EB0504DF
:1007C00081EA030E52EA03354FEA013100F08880D6
:1007D0004FEA03334FF0805545EA131343EA12639F
:1007E0004FEA022245EA111545EA10654FEA002654
:1007F0000EF000419D4208BF964244F1FD0404F50D
:10080000407402D25B084FEA3202B61A65EB030568
:100810005B084FEA32024FF480104FF4002CB6EB25
:10082000020E75EB030E22BFB61A754640EA0C00A5
:100830005B084FEA3202B6EB020E75EB030E22BFE5
:10084000B61A754640EA5C005B084FEA3202B6EB26
:10085000020E75EB030E22BFB61A754640EA9C00E5
:100860005B084FEA3202B6EB020E75EB030E22BFB5
:10087000B61A754640EADC0055EA060E18D04FEA73
:10088000051545EA16754FEA06164FEAC30343EA13
:1008900052734FEAC2025FEA1C1CC0D111F4801FE0
:1008A0000BD141EA00014FF000004FF0004CB6E7D9
:1008B00011F4801F04BF01430020B4F1FD0C88BF78
:1008C000BCF5E06F3FF6AFAEB5EB030C04BFB6EB83
:1008D000020C5FEA500C50F1000041EB045170BD76
:1008E0000EF0004E4EEA113114EB5C04C2BFD4EBA3
:1008F0000C0541EA045170BD41F480114FF0000E27
:10090000013C90E645EA060E8DE60CEA135594EAA2
:100910000C0F08BF95EA0C0F3FF43BAF94EA0C0FA5
:100920000AD150EA01347FF434AF95EA0C0F7FF41A
:1009300025AF104619462CE795EA0C0F06D152EA6E
:1009400003353FF4FDAE1046194622E750EA410652
:1009500018BF52EA43067FF4C5AE50EA41047FF463
:100960000DAF52EA43057FF4EBAE12E7034613F8EE
:10097000012B002AFBD1181A013870470000000033
:1009800001F0FF01102A2BDB10F0070F08D010F840
:10099000013B013A8B422DD010F0070F42B3F6D144
:1009A000F0B441EA012141EA014122F007047FF05D
:1009B00000070023F0E80256083C85EA010586EAB4
:1009C000010685FA47F5A3FA87F586FA47F6A5FAF0
:1009D00087F68EB9EED1F0BC01F0FF0102F00702FC
:1009E00032B110F8013B013A83EA010313B1F8D1A7
:1009F0000020704701387047002D06BF3546033888
:100A0000073815F0010F07D1013015F4807F02BFC0
:100A1000013015F4C03F0130F0BC0138704700BF11
:100A20004FF0FF3C06E000BF4FF0010C02E000BFBA
:100A30004FF0010C4DF804CD4FEA410C7FEA6C5C9D
:100A40004FEA430C18BF7FEA6C5C1BD001B050EA40
:100A5000410C0CBF52EA430C91EA030F02BF90EA2B
:100A6000020F0020704710F1000F91EA030F58BFEA
:100A7000994208BF90422CBFD8176FEAE37040F04C
:100A8000010070474FEA410C7FEA6C5C02D150EAEA
:100A9000013C07D14FEA430C7FEA6C5CD6D152EAA5
:100AA000033CD3D05DF8040B704700BF844610466A
:100AB00062468C461946634600E000BF01B5FFF769
:100AC000B7FF002848BF10F1000F01BD4DF808ED39
:100AD000FFF7F4FF0CBF012000205DF808FB00BF0A
:100AE0004DF808EDFFF7EAFF34BF012000205DF864
:100AF00008FB00BF4DF808EDFFF7E0FF94BF0120B1
:100B000000205DF808FB00BF4DF808EDFFF7CEFFB1
:100B100094BF012000205DF808FB00BF4DF808EDF0
:100B2000FFF7C4FF34BF012000205DF808FB00BFC1
:100B30004FEA410C7FEA6C5C02D150EA013C0AD1D9
:100B40004FEA430C7FEA6C5C02D152EA033C02D1CB
:100B50004FF0000070474FF0010070474FEA41022C
:100B600012F5001215D211D56FF47873B3EB6252FF
:100B700012D94FEAC12343F0004343EA505311F026
:100B8000004F23FA02F018BF404270474FF00000B8
:100B9000704750EA013005D111F0004008BF6FF0F6
:100BA000004070474FF00000704700BF10B504468A
:100BB0000E4B18784FF47A73B3FBF0F30C4A1068BD
:100BC000B0FBF3F000F064FE68B90F2C01D90120EE
:100BD0000AE0002221464FF0FF3000F017FE034BE1
:100BE0005C60002000E0012010BD00BF000000207C
:100BF0000800002008B5074A136843F0100313608B
:100C0000032000F0F1FD0020FFF7D0FF02F0FCFC14
:100C1000002008BD00200240034A1168034B1B78E6
:100C20000B441360704700BF10020020000000203A
:100C3000014B1868704700BF1002002070477047D2
:100C400038B50268936803F00303012B01D000203C
:100C500038BD136813F0010F2FD0936803F00D0314
:100C6000012B09D0036C43F010030364436C43F081
:100C7000010343640120EBE70446936843F0020359
:100C80009360036803221A60FFF7D2FF05462368CA
:100C90009B6813F0010F0ED0FFF7CAFF401B02281C
:100CA000F5D9236C43F010032364636C43F0010314
:100CB00063640120CCE70020CAE70020C8E70000F9
:100CC00038B50268936803F00303012B0DD09168D7
:100CD000184B19420FD0036C43F010030364436CAC
:100CE00043F001034364012038BD136813F0010F82
:100CF000EDD00020F8E70446936843F001039360C9
:100D0000FFF796FF054623681B6813F0010F0ED10D
:100D1000FFF78EFF401B0228F5D9236C43F0100328
:100D20002364636C43F0010363640120DCE700206B
:100D3000DAE700BF3F00008030B597B00023019391
:100D4000002800F0F7800446036C13F0100F52D116
:100D5000036CABB1002023689A6812F0805F03D067
:100D60009B6813F0005F47D0236C23F0120343F01D
:100D700010032364636C43F00103636401203BE0D0
:100D80004364C364836480F83C3002F055FC2368FC
:100D90009B6813F0805F01D00020DCE72046FFF75E
:100DA0004FFF236C13F0100FD5D10028D3D1236C43
:100DB00023F4885323F0020343F0020323642268E0
:100DC000936823F0405393602268936843F0805304
:100DD0009360594B1B68594AA2FB03239B0C03EBFE
:100DE00083035A00019202E0019B013B0193019BA6
:100DF000002BF9D1AFE70020236C13F0100F40F067
:100E00009080002840F08D8023689A6812F00402D8
:100E100040F08780216C21F4817141F0020121644E
:100E2000B3F1A04F54D04FF0A0410291996801F066
:100E3000030101294FD0029B23B1996801F00301FE
:100E400001294DD03E498B6823F4403365682B431C
:100E50008B60617E4B03656B012D01D04FF4805296
:100E60001343E2681343A268134394F82020012A35
:100E70003BD0A26A012A02D0E16A0A4313432268E6
:100E8000916811F00C0F0CD1D16821F4804121F050
:100E90000201D160217E94F83020520042EA813272
:100EA00013432168CD68274A2A401343CB60236946
:100EB000012B2DD02268136B23F00F031363002343
:100EC0006364236C23F0030343F0010323642FE0E6
:100ED0001D490291AAE71B6813F0010FB9D1AAE7D7
:100EE0001B6813F0010FB4D1ACE731B9626A013A63
:100EF00043EA424343F48033BBE7226C22F02202F0
:100F000042F020022264626C42F001026264B0E7A7
:100F100021680B6B23F00F03E269013A13430B6363
:100F2000CDE7236C23F0120343F010032364012068
:100F300017B030BD0120FBE70800002083DE1B4313
:100F40000003005007C0F0FF0001005003689B68D9
:100F500013F0040F40F0908090F83C30012B00F02B
:100F60008E8010B50446012380F83C30FFF7A8FEC0
:100F7000034600287BD1226C22F4706222F0010229
:100F800042F4807222643F4A926812F01F0F17D019
:100F90002168B1F1A04F13D0226C42F48012226478
:100FA000394A91421BD14FF0A042D26812F0007F23
:100FB00015D0226C22F4405242F4805222640EE09A
:100FC000226C22F4801222642268D26812F0007F20
:100FD00005D0226C22F4405242F480522264226CEA
:100FE00012F4805F34D0626C22F006026264002248
:100FF00084F83C2022681C2111606269082A2AD1E9
:1010000021684A6822F004024A6021684A6842F076
:1010100008024A60626B012A23D01A4A926812F0D1
:101020001F0F0FD0174A926802F01F02052A09D03D
:10103000144A926802F01F02092A03D02268B2F112
:10104000A04F17D121688A6842F004028A6011E03B
:1010500000226264CBE721684A6842F00C024A60D1
:10106000D8E721684A6822F010024A60D5E70022DA
:1010700084F83C20184610BD02231846704702230E
:10108000FBE700BF00030050000100500368186C2C
:1010900070477047704770477047000010B50446AE
:1010A00003681A6812F0040F03D05A6812F0040F94
:1010B00007D11A6812F0080F52D05A6812F0080FC0
:1010C0004ED0226C12F0100F03D1226C42F4007249
:1010D0002264A34A926812F01F0F12D0A04A9268AD
:1010E00002F01F02052A0CD09D4A926802F01F02EE
:1010F000092A06D0B3F1A04F03D04FF0A042D16827
:1011000000E0D968DA6812F4406F23D111F4005F6F
:1011100020D11A6812F0080F1CD09A6812F0040F40
:1011200010D15A6822F00C025A60236C23F48073A9
:101130002364236C13F4805F0CD1236C43F0010310
:10114000236407E0236C43F010032364636C43F0D3
:1011500001036364204602F04DFA23680C221A60F2
:1011600023681A6812F0200F03D05A6812F0200F7B
:1011700007D11A6812F0400F71D05A6812F0400F70
:101180006DD0226C42F400522264754A926812F0CB
:101190001F0F12D0724A926802F01F02052A0CD06B
:1011A0006F4A926802F01F02092A06D0B3F1A04FDD
:1011B00003D04FF0A042D16800E0D968DA6C12F099
:1011C000C00F09D011F0007F43D1DA6812F4406FEC
:1011D0003FD111F4005F3CD11A6812F0400F38D0B3
:1011E0005F4A926812F01F0F12D05D4A926802F0B7
:1011F0001F02062A0CD05A4A926802F01F02072AE0
:1012000006D0B3F1A04F03D04FF0A042D26800E067
:10121000DA6812F4001F1CD19A6812F0080F10D17E
:101220005A6822F060025A60236C23F480532364CE
:10123000236C13F4807F0CD1236C43F001032364EF
:1012400007E0236C43F010032364636C43F0010355
:1012500063642046FFF71DFF236860221A6023683D
:101260001A6812F0800F03D05B6813F0800F3ED134
:1012700023681A6812F4807F03D05B6813F4807FC0
:1012800040D123681A6812F4007F03D05B6813F41E
:10129000007F43D123681A6812F0100F1DD05A68DE
:1012A00012F0100F19D0626B012A08D02C4A9268F4
:1012B00012F01F0F3ED1DB6813F0010F0AD0236C30
:1012C00043F480632364636C43F002036364204649
:1012D000FFF7B5FC236810221A6023681A6812F41D
:1012E000806F03D05A6812F4806F29D110BD236C2F
:1012F00043F4803323642046FFF7A0FC2368802258
:101300001A60B5E7236C43F4003323642046FFF7EB
:10131000C2FE23684FF480721A60B2E7236C43F474
:10132000802323642046FFF7B7FE23684FF4007242
:101330001A60AFE70A4B9B6813F4404FCAD0BEE770
:10134000226C42F480422264626C42F008026264C1
:101350004FF480621A602046FFF79CFEC6E700BF8C
:101360000003005030B496B00022019290F83C2067
:10137000012A00F0A4810346012280F83C20006885
:10138000826812F0040F40F08F814A68042A31D835
:10139000046B02EB420255001F22AA4024EA02021B
:1013A0000C68AC40224302631868826812F00C0F8C
:1013B00068D10A68092A4ED9846902EB42021E3AB2
:1013C0000725954024EA05048D6805FA02F22243B8
:1013D000826148691C68E268C2F3C102520000FAE7
:1013E00002F208690138032800F28B80DFE800F080
:1013F0004068737E092A0ED8446B02EB4202550006
:101400001E3D1F22AA4024EA02020C6804FA05F5D8
:101410002A434263C8E70E2A0ED8846B02EB4202CD
:1014200055003C3D1F22AA4024EA02020C6804FA3F
:1014300005F52A438263B7E7C46B02EB420255000D
:101440005A3D1F22AA4024EA02020C6804FA05F55C
:101450002A43C263A8E7446902EB4202072595408C
:1014600024EA05048D6805FA02F222434261B0E7DE
:10147000206E944D0540086842EA8062154345F0AD
:10148000004525661868826802F00302012A6BD0C5
:10149000CA68012A6ED0D0F8B0200D680124AC4093
:1014A00022EA0402C0F8B0200A68102A00F08B80FB
:1014B000112A00F0A980122A00F0AC800020F8E088
:1014C000606E804D0540086842EA8062154345F031
:1014D00000456566D6E7A06E7A4D0540086842EA89
:1014E0008062154345F00045A566CBE7E56E75487B
:1014F00028400D6842EA8562024342F00042E266FB
:10150000C0E7226E02F0F8420868B2EB806F1CD090
:101510001868426E02F0F8420C68B2EB846F19D082
:101520001868826E02F0F8420C68B2EB846F16D035
:101530001868C26E02F0F8420C68B2EB846FA1D159
:10154000C26E22F00042C2669CE7226E22F0004288
:101550002266DDE7426E22F000424266E0E7826EDC
:1015600022F000428266E3E7026812F0010F8FD09A
:1015700000209EE0D0F8B0200D680124AC4022434A
:10158000C0F8B0200A68092A0ED91D68A86902EBC4
:1015900042021B3A0724944020EA04008C6804FAB3
:1015A00002F20243AA617FE71D686869013202EB1B
:1015B00042020724944020EA04008C6804FA02F2F4
:1015C00002436A6170E74049896811F4000F7FF4B3
:1015D0006FAF1868B0F1A04F23D04FF0A041029137
:1015E000816801F0030101291ED0029921B18C68A4
:1015F00004F00304012C21D0102A24D0112A42D057
:10160000122A4AD0002054E02F49896811F0807FC7
:10161000DFD050E72C49896811F4800FD9D0002021
:1016200047E02A490291DBE7016811F0010FDCD0A5
:101630001A6C42F020021A6401203AE0096811F0A5
:10164000010FF5D1D8E7B0F1A04FD7D11E498A6874
:1016500042F400028A601E4A1268A1F14E61A1F5AF
:101660008421A1F27D41A1FB0212920C02EB8202C5
:101670005100019102E0019A013A0192019A002A77
:10168000F9D1002015E0B0F1A04FB9D10E498A6818
:1016900042F080728A6000200BE00B498A6842F4B5
:1016A00080028A60002004E01A6C42F020021A6472
:1016B0000120002283F83C2016B030BC7047022085
:1016C000FAE700BF00F0FF83000300500001005064
:1016D0000800002070B495B003460268B2F1A04F34
:1016E0003AD04FF0A04000900098002873D093F8B3
:1016F0003C40012C71D0012483F83C40926812F0E8
:10170000040F5DD1826812F0040F59D10A68002AD3
:1017100031D0334DAA6822F460424C6893F83060AF
:1017200044EA46342243AA601C68A26802F003021D
:10173000012A14D0826802F00302012A15D0284C35
:10174000A26822F4716222F00F02086889680143DE
:101750000A43A260002038E022480090C4E72268D3
:1017600012F0010FE6D000202FE0026812F0010F06
:10177000E5D0002029E01A498A6822F460428A6094
:1017800019688A6802F00302012A0DD0826802F00B
:101790000302012A0ED012498A6822F4716222F0F3
:1017A0000F028A60002010E00A6812F0010FEDD0ED
:1017B00000200AE0026812F0010FECD0002004E0E3
:1017C0001A6C42F020021A640120002283F83C20A7
:1017D00015B070BC70470120FAE70220F8E700BF9F
:1017E0000003005000010050074AD36823F4E0636F
:1017F0001B041B0C000200F4E060184340F0BF60C3
:1018000040F40030D060704700ED00E030B4174B7A
:10181000DB68C3F30223C3F10704042C28BF0424AC
:101820001D1D062D18D9033B4FF0FF3505FA04F4B2
:1018300021EA0401994005FA03F322EA030319435C
:1018400000280BDB0901C9B200F1604000F56140DE
:1018500080F8001330BC70470023E5E700F00F006C
:101860000901C9B2024B1954F4E700BF00ED00E0D2
:1018700014ED00E0002807DB00F01F0240090123FF
:101880009340024A42F82030704700BF00E100E078
:101890000138B0F1807F0AD2064B5860064AF02129
:1018A00082F823100020986007221A6070470120F8
:1018B000704700BF10E000E000ED00E070B110B52F
:1018C0000446037933B102232371002020610123F0
:1018D000237110BD437101F0E5FEF4E7012070476C
:1018E00010B483B0002401940068019051B10199B3
:1018F0000A4414320192019A1360002003B05DF88B
:10190000044B704701990A4408320192F3E7437986
:10191000012B29D010B40123437102220271046803
:1019200022688B401343236091B90268136803F067
:101930003C033C2B07D0012303710023437118465D
:101940005DF8044B7047536843F001035360F2E7BE
:101950000268136803F47013B3F5701FEBD153687A
:1019600043F002035360E6E70220704730B4046896
:101970004379012B2CD00123437102230371236887
:10198000144DAC4219D040F6FE75954023EA05058A
:101990000B6889680B4393402B43236004682368DA
:1019A000C02101FA02F223EA02022260012303713C
:1019B00000234371184630BC7047002AE3D140F63B
:1019C000FE75954023EA05050B6849680B43E2E77D
:1019D0000220F0E7007400400268054B1344054AFA
:1019E000A2FB03231B099B000364034BC3637047E3
:1019F000F8FFFDBFCDCCCCCC0000024020B310B529
:101A00000446022380F8213001680A6822F47F52DC
:101A100022F03002436880680343E0680343206992
:101A2000034360690343A0690343E069034313432D
:101A30000B602046FFF7D0FF0020A063012384F84D
:101A4000213084F8200010BD0120704708B590F8BF
:101A50002130022B03D004238363012008BD0268D8
:101A6000136823F00E0313600268136823F0010368
:101A70001360036CC16B012202FA03F34B6080F820
:101A80002120002380F82030436B13B198470020B9
:101A9000E4E70020E2E738B5C36B1A6804682568FC
:101AA000016C04238B40134213D015F0040F10D0A7
:101AB000236813F0200F03D1236823F0040323606D
:101AC000016CC26B04238B405360C36A03B1984717
:101AD00038BD02238B4013421AD015F0020F17D0E5
:101AE000236813F0200F06D1236823F00A03236034
:101AF000012380F82130016CC26B02238B405360BC
:101B0000002380F82030836A002BE1D09847DFE77C
:101B1000082303FA01F11142DAD015F0080FD7D0EB
:101B2000236823F00E032360026CC16B012303FAC8
:101B300002F24A60836380F82130002380F820306D
:101B4000036B002BC4D09847C2E70000F0B482B00A
:101B5000002336E0032400E00024B4403C43023577
:101B6000584E46F82540584C2568D44304EA0506EB
:101B70004F6817F4803F01D042EA0506524D2E60AF
:101B80006D6804EA05064F6817F4003F01D042EA89
:101B900005064D4D6E60AD6804EA05064F6817F402
:101BA000801F01D042EA0506474DAE60ED682C402B
:101BB0004E6816F4001F01D042EA0504424AD46080
:101BC00001330A6832FA03F478D001249C402240A1
:101BD000F6D04D68022D01D0122D10D1DE08083646
:101BE00050F826C003F00705AF000F25BD402CEAD2
:101BF000050C0D69BD4045EA0C0540F82650066805
:101C00005F000325BD40ED4305EA060C4E6806F073
:101C10000306BE4046EA0C0606604E6806F1FF3C2D
:101C2000BCF1010F03D9112E01D0122E10D18668FC
:101C300005EA060CCE68BE4046EA0C068660466899
:101C400026EA04044E68C6F300169E40264346600A
:101C5000C46825408C68BC402C43C4604C6814F0B8
:101C6000805FADD0194CA56945F00105A561A46957
:101C700004F001040194019C9D08AE1C114C54F821
:101C8000267003F00304A6000F24B44027EA0407DB
:101C9000B0F1904F3FF460AF0D4CA0420AD004F574
:101CA0008064A04208D004F58064A0423FF452AFA3
:101CB000052452E7012450E702244EE702B0F0BCAD
:101CC000704700BF000001400004014000100240C6
:101CD000000400480369194201D100207047012027
:101CE00070470AB9816270478161704743690B424E
:101CF00001D18161704709048161704708B5054BC6
:101D00005B69034200D108BD024B586101F0CCFB76
:101D1000F9E700BF00040140002800F00D8370B512
:101D200082B00446036813F0010F3BD0B54B5B68EB
:101D300003F00C03042B1ED0B24B5B6803F00C03C2
:101D4000082B13D06368B3F5803F68D0002B40F0B8
:101D5000928003F1804303F504331A6822F4803241
:101D60001A601A6822F480221A605DE0A54B5B6855
:101D700013F4803FE6D04FF4003393FAA3F3A14B62
:101D800019684FF4003393FAA3F3B3FA83F303F023
:101D90001F03012202FA03F30B4203D06368002BF6
:101DA00000F0CC82236813F0020F00F0C680954B40
:101DB0005B6813F00C0F00F09C80924B5B6803F0A3
:101DC0000C03082B00F08F802369002B00F0F380B8
:101DD000012292FAA2F3B3FA83F303F1845303F5D9
:101DE00084139B001A60FEF723FF0546022393FA33
:101DF000A3F3844B1968022393FAA3F3B3FA83F392
:101E000003F01F03012202FA03F30B4240F0C480E7
:101E1000FEF70EFF401B0228E8D9032095E2794A1D
:101E2000136843F480331360764AD36A23F00F03B8
:101E3000A1680B43D3626368002B36D0FEF7F8FE2F
:101E400005464FF4003393FAA3F36E4B19684FF431
:101E5000003393FAA3F3B3FA83F303F01F030122D1
:101E600002FA03F30B429DD1FEF7E2FE401B642809
:101E7000E7D9032069E2B3F5A02F09D0614B1A68B6
:101E800022F480321A601A6822F480221A60CBE7AA
:101E900003F18043A3F53C331A6842F480221A60B0
:101EA0001A6842F480321A60BEE7FEF7C1FE0546AA
:101EB0004FF4003393FAA3F3524B19684FF40033F5
:101EC00093FAA3F3B3FA83F303F01F03012202FA98
:101ED00003F30B423FF466AFFEF7AAFE401B6428F3
:101EE000E6D9032031E2474B5B6813F4803F7FF46F
:101EF0006BAF022393FAA3F3424B1968022393FAC0
:101F0000A3F3B3FA83F303F01F03012202FA03F3EE
:101F10000B4204D02369934201D0012015E23948D5
:101F2000036823F0F8036169F82292FAA2F2B2FA88
:101F300082F201FA02F213430360236813F0080FE0
:101F400000F08C80A369002B60D0012191FAA1F2EE
:101F5000B2FA82F22C4B13449B001960FEF768FE24
:101F60000546022393FAA3F293FAA3F293FAA3F29B
:101F7000244A516A93FAA3F3B3FA83F303F01F03DD
:101F8000012202FA03F30B4268D1FEF751FE401B17
:101F90000228E6D90320D8E11A48036823F0F803A1
:101FA0006169F82292FAA2F2B2FA82F201FA02F21E
:101FB00013430360C1E7012393FAA3F3B3FA83F356
:101FC00003F1845303F584139B0000221A60FEF78B
:101FD0002FFE0546022393FAA3F30A4B1968022346
:101FE00093FAA3F3B3FA83F303F01F03012202FA77
:101FF00003F30B42A1D0FEF71BFE401B0228E9D9D8
:102000000320A2E10010024020819010012292FAE8
:10201000A2F2B2FA82F2BC4B13449B0000221A6077
:10202000FEF706FE0546022393FAA3F293FAA3F203
:1020300093FAA3F2B54A516A93FAA3F3B3FA83F37E
:1020400003F01F03012202FA03F30B4206D0FEF74E
:10205000EFFD401B0228E6D9032076E1236813F048
:10206000040F00F0B380A94BDB6913F0805F20D12F
:10207000A64BDA6942F08052DA61DB6903F08053E3
:102080000193019B0125A24B1B6813F4807F12D0A2
:10209000E368012B23D073BB03F1804303F50433C2
:1020A0001A6A22F001021A621A6A22F004021A6203
:1020B0001AE00025E7E7964A136843F4807313603B
:1020C000FEF7B6FD0646924B1B6813F4807FDFD106
:1020D000FEF7AEFD801B6428F5D9032035E18B4A5D
:1020E000136A43F001031362E368002B41D0FEF74B
:1020F0009FFD06462BE0052B09D0844B1A6A22F07F
:1021000001021A621A6A22F004021A62ECE77F4B9B
:102110001A6A42F004021A621A6A42F001021A6252
:10212000E2E77A4B196A022393FAA3F3B3FA83F333
:1021300003F01F03012202FA03F3194245D1FEF70F
:1021400077FD801B41F28833984200F2F980022328
:1021500093FAA3F293FAA3F3B3FA83F35B0943F080
:102160000203022BDDD0022393FAA3F3674B596AD3
:10217000D9E7FEF75DFD064615E0644B196A0223B8
:1021800093FAA3F3B3FA83F303F01F03012202FAD5
:1021900003F3194219D0FEF74BFD801B41F288333F
:1021A000984200F2CF80022393FAA3F293FAA3F3AA
:1021B000B3FA83F35B0943F00203022BDDD0022361
:1021C00093FAA3F3514B596AD9E7B5BBE369002BE6
:1021D00000F0BA804D4A526802F00C02082A00F062
:1021E0009980022B2FD04FF0807393FAA3F3B3FAA8
:1021F00083F303F1845303F584139B0000221A60D8
:10220000FEF716FD04464FF0007393FAA3F33F4B1D
:1022100019684FF0007393FAA3F3B3FA83F303F052
:102220001F03012202FA03F319426BD0FEF700FDEF
:10223000001B0228E7D9032087E0344AD36923F042
:102240008053D361C2E74FF0807393FAA3F3B3FADC
:1022500083F303F1845303F584139B0000221A6077
:10226000FEF7E6FC05464FF0007393FAA3F3274B05
:1022700019684FF0007393FAA3F3B3FA83F303F0F2
:102280001F03012202FA03F3194206D0FEF7D0FC25
:10229000401B0228E7D9032057E01C494B6823F470
:1022A0007413626A206A024313434B604FF08073D9
:1022B00093FAA3F3B3FA83F303F1845303F584137E
:1022C0009B0001221A60FEF7B3FC04464FF0007336
:1022D00093FAA3F30D4B19684FF0007393FAA3F32D
:1022E000B3FA83F303F01F03012202FA03F3194246
:1022F00006D1FEF79DFC001B0228E7D9032024E04D
:10230000002022E0002020E02081901000100240F8
:1023100000700040012B1AD00F4B5B6803F4803132
:10232000226A914201D001200FE003F47013626A27
:1023300093420ED0012008E001207047012004E004
:10234000032002E0032000E0002002B070BD012065
:10235000FBE70020F9E700BF0010024010B4174B64
:102360005C6804F00C03082B26D104F470124FF4BF
:10237000701393FAA3F3B3FA83F322FA03F3104929
:10238000C85C0E4BDB6A03F00F030F2292FAA2F235
:10239000B2FA82F2D3400B441A7C14F4803F05D188
:1023A000084B03FB00F05DF8044B7047064BB3FB92
:1023B000F2F300FB03F0F6E70348F4E700100240F5
:1023C000385A000800093D0000127A00002800F089
:1023D000C18070B50446614B1B6803F007038B4254
:1023E0000CD25E4A136823F007030B431360136893
:1023F00003F007038B4201D0012070BD236813F066
:10240000020F06D0564A536823F0F003A068034336
:1024100053600D46236813F0010F5AD06368012BF7
:102420002DD0022B40D0022292FAA2F24C4A106820
:10243000022292FAA2F2B2FA82F202F01F02012103
:1024400001FA02F2104200F0878045494A6822F002
:10245000030213434B60FEF7EBFB0646404B5B6801
:1024600003F00C036268B3EB820F32D0FEF7E0FB9F
:10247000801B41F288339842F0D90320BDE74FF426
:10248000003292FAA2F2364A10684FF4003292FA01
:10249000A2F2B2FA82F202F01F02012101FA02F264
:1024A0000242D2D10120A8E74FF0007292FAA2F2C4
:1024B0002B4A10684FF0007292FAA2F2B2FA82F23E
:1024C00002F01F02012101FA02F21042BDD10120E7
:1024D00093E7224B1B6803F00703AB420CD91F4A5A
:1024E000136823F007032B431360136803F00703FB
:1024F000AB4201D0012080E7236813F0040F06D01F
:10250000174A536823F4E063E1680B435360236880
:1025100013F0080F07D0124A536823F4605321695F
:1025200043EAC1035360FFF719FF0D4B5B6803F0EB
:10253000F003F02292FAA2F2B2FA82F2D340094AF0
:10254000D35CD840084B1860084B1868FEF72EFB88
:10255000002052E70120704701204EE70020024092
:10256000001002405C5D000808000020040000200C
:10257000014B1868704700BF0800002008B5FFF73E
:10258000F7FF074B5B6803F4E0634FF4E06292FAF5
:10259000A2F2B2FA82F2D340024AD35CD84008BD1C
:1025A000001002406C5D000808B5FFF7E1FF074B23
:1025B0005B6803F460534FF4605292FAA2F2B2FAED
:1025C00082F2D340024AD35CD84008BD00100240DA
:1025D0006C5D0008F0B583B00446036813F4803FD7
:1025E00044D0644BDB6913F0805F79D1614BDA69C9
:1025F00042F08052DA61DB6903F080530193019B62
:1026000001255D4B1B6813F4807F6BD0594B1B6A0F
:1026100013F4407321D0626802F440729A421CD0D5
:102620005448016A21F440764FF4803393FAA3F2C0
:10263000B2FA82F2514F3A4492004FF0010CC2F8C4
:1026400000C093FAA3F3B3FA83F33B449B00002248
:102650001A60066211F0010F58D1464A136A23F43A
:10266000407361680B431362002D7AD1236813F025
:10267000010F06D03F4A136B23F00303A1680B43FD
:102680001363236813F0200F06D03A4A136B23F02C
:102690001003E1680B431363236813F0800F06D027
:1026A000344AD36A23F4F87321690B43D362236855
:1026B00013F4805F06D02F4A136B23F48073616993
:1026C0000B431363236813F4804F51D0294A136BD3
:1026D00023F48053A1690B431363002003B0F0BDC2
:1026E00000258EE7244A136843F480731360FEF7D5
:1026F0009FFA0646204B1B6813F4807F86D1FEF7B5
:1027000097FA801B6428F5D90320E7E7FEF790FAD3
:10271000064614E0174B196A022393FAA3F3B3FA9F
:1027200083F303F01F03012202FA03F30B4294D157
:10273000FEF77EFA801B41F28833984216D80223B6
:1027400093FAA3F293FAA3F3B3FA83F35B0943F08A
:102750000203022BDED0022393FAA3F3054B596A3E
:10276000DAE7D36923F08053D3617FE70320B5E72D
:102770000020B3E70010024000700040008190107C
:102780000268D36843F00103D36002689168064B86
:102790000B40062B06D0B3F5803F03D0136843F0FF
:1027A0000103136000207047070001007047704765
:1027B0007047704710B5044603681A6912F0020F9B
:1027C00011D0DA6812F0020F0DD06FF002021A6118
:1027D0000123037703689B6913F0030F79D0FFF798
:1027E000E6FF0023237723681A6912F0040F12D042
:1027F000DA6812F0040F0ED06FF004021A6102239F
:10280000237723689B6913F4407F68D02046FFF745
:10281000CEFF0023237723681A6912F0080F12D025
:10282000DA6812F0080F0ED06FF008021A61042364
:1028300023772368DB6913F0030F57D02046FFF797
:10284000B6FF0023237723681A6912F0100F12D005
:10285000DA6812F0100F0ED06FF010021A61082320
:1028600023772368DB6913F4407F46D02046FFF7C7
:102870009EFF0023237723681A6912F0010F03D00B
:10288000DA6812F0010F3FD123681A6912F0800F45
:1028900003D0DA6812F0800F3DD123681A6912F470
:1028A000807F03D0DA6812F0800F3BD123681A6969
:1028B00012F0400F03D0DA6812F0400F39D12368CC
:1028C0001A6912F0200F03D0DA6812F0200F37D106
:1028D00010BDFFF76BFF2046FFF76AFF81E7204638
:1028E000FFF764FF2046FFF763FF92E72046FFF7FC
:1028F0005DFF2046FFF75CFFA3E72046FFF756FF8A
:102900002046FFF755FFB4E76FF001021A61204639
:1029100000F036FEB8E76FF080021A61204600F042
:1029200079F8BAE76FF480721A61204600F073F804
:10293000BCE76FF040021A612046FFF73AFFBEE79E
:102940006FF020021A61204600F063F8C0E7000033
:102950000368224A904206D0B0F1804F03D0A2F51E
:102960009432904203D123F070034A6813431B4A08
:10297000904212D0B0F1804F0FD0A2F59432904225
:102980000BD002F59E32904207D002F58062904251
:1029900003D002F58062904203D123F44073CA68E9
:1029A000134323F080034A69134303608B68C362B7
:1029B0000B688362094B98420BD003F5A0539842F1
:1029C00007D003F58063984203D003F580639842F3
:1029D00001D10B690363012343617047002C01405F
:1029E000A8B110B5044690F83D305BB1022384F8DD
:1029F0003D30211D2068FFF7ABFF012384F83D30F7
:102A0000002010BD80F83C3000F07CFEEEE7012095
:102A100070477047704770470268136823F49073DB
:102A200013600268936823F0010393602023836797
:102A3000002303667047436F212B00D07047B0F826
:102A400052309BB26BB1C26C036812781A85C36CAA
:102A50000133C364B0F85230013B9BB2A0F852304E
:102A6000ECE70268136823F08003136002681368C0
:102A700043F0400313607047436F212B00D0704731
:102A8000B0F852309BB27BB1C36C1B880268C3F3B1
:102A900008031385C36C0233C364B0F85230013BA2
:102AA0009BB2A0F85230EAE70268136823F0800373
:102AB00013600268136843F040031360704700001E
:102AC000436F202B28D149B352B390F87030012BBB
:102AD00028D0012380F87030C164A0F85020A0F8FD
:102AE000522000234366C367212343678368B3F5FD
:102AF000805F0BD00C4B4366002380F87030016878
:102B00000A6842F080020A60184670470369002B89
:102B1000F0D1064B4366EFE7022070470120704773
:102B20000120704702207047372A0008792A0008E0
:102B300008B501680A6822F040020A602022426754
:102B40000022426600F04EFD08BD704738B50446CD
:102B50000168CB6908688D6840F60F021A400CD1F5
:102B600013F0200F09D010F0200F06D0236E002B99
:102B700000F0A180204698479DE0002A7DD015F006
:102B8000010202D110F4907F77D013F0010F07D02B
:102B900010F4807F04D001250D62E16F2943E167C5
:102BA00013F0020F07D032B1216802250D62E16FE8
:102BB00041F00401E16713F0040F07D032B121683E
:102BC00004250D62E16F41F00201E16713F0080F87
:102BD00009D010F0200F00D12AB12268082111621B
:102BE000E26F0A43E26713F4006F0AD010F0806FBF
:102BF00007D022684FF400611162E26F42F02002B8
:102C0000E267E26F002A56D013F0200F06D010F0D2
:102C1000200F03D0236E0BB120469847E26F236844
:102C20009B6813F0400F02D112F0280F1FD02046EE
:102C3000FFF7F2FE23689A6812F0400F13D09A68EB
:102C400022F040029A60E36E4BB11D4A5A63E06E77
:102C5000FEF7FCFE78B3E06E436B98472BE020460E
:102C6000FFF773FF27E02046FFF76FFF23E02046C2
:102C7000FFF76BFF0023E3671DE013F4801F02D012
:102C800015F4800F0AD113F0800F0ED010F0800FD2
:102C90000BD0636E7BB1204698470CE04FF4801355
:102CA0000B62204600F01EFA05E013F0400F02D040
:102CB00010F0400F00D138BD2046FFF739FFFAE78A
:102CC000C52C000808B5406A0023A0F85A30A0F8C7
:102CD0005230FFF73AFF08BD10B504468368026919
:102CE000134342691343C2691343016808686C4A7D
:102CF000024013430B602268536823F44053E16899
:102D00000B435360A269236A1A4321688B6823F43A
:102D1000306313438B602368624A934215D0624A42
:102D2000934228D002F58062934220D01023E269BA
:102D3000B2F5004F21D0082B00F2AB80DFE803F0A2
:102D40006C818BA996A9A9A9A000584B1B6B03F015
:102D50000303032B09D8DFE803F00204060C002369
:102D6000E5E70423E3E70823E1E71023DFE7002397
:102D7000DDE70223DBE70023D9E7082B49D8DFE8AA
:102D800003F0051E2948344848483F00FFF7F6FB8A
:102D90006268530803EB4003B3FBF2F39BB20020DD
:102DA000A3F110014FF6EF72914275D89AB222F05A
:102DB0000F02C3F3420313432268D3603DE0FFF7E1
:102DC000F3FB6268530803EB4003B3FBF2F39BB2DF
:102DD0000020E5E76268530803F5740303F5105318
:102DE000B3FBF2F39BB20020DAE7FFF7B7FA6268B1
:102DF000530803EB4003B3FBF2F39BB20020CFE791
:102E00006268530803F58033B3FBF2F39BB20020F2
:102E1000C6E701200023C3E7FFF7B0FB626800EBC1
:102E20005203B3FBF2F39BB20020A3F110014FF663
:102E3000EF72914232D82268D36000232366636622
:102E400010BDFFF7B1FB626800EB5203B3FBF2F376
:102E50009BB20020E9E76268530803F5F40303F529
:102E60009053B3FBF2F39BB20020DEE7FFF776FA54
:102E7000626800EB5203B3FBF2F39BB20020D4E78D
:102E80006268530803F50043B3FBF2F39BB20020E2
:102E9000CBE701200023C8E70120CEE70120CCE7E3
:102EA000F369FFEF00380140004400400010024089
:102EB000436A13F0010F06D00268536823F400330D
:102EC000816A0B435360436A13F0020F06D0026815
:102ED000536823F48033C16A0B435360436A13F091
:102EE000040F06D00268536823F48023016B0B4360
:102EF0005360436A13F0080F06D00268536823F446
:102F00000043416B0B435360436A13F0100F06D02C
:102F10000268936823F48053816B0B439360436A88
:102F200013F0200F06D00268936823F40053C16B9E
:102F30000B439360436A13F0400F0AD00268536852
:102F400023F48013016C0B435360036CB3F5801FB3
:102F50000BD0436A13F0800F06D00268536823F445
:102F60000023816C0B43536070470268536823F45D
:102F7000C003416C0B435360EBE72DE9F04104467D
:102F80000F4616469846069D2368DB6937EA030319
:102F90000CBF01230023B3423AD1B5F1FF3FF3D078
:102FA000FDF746FEA0EB0800A8421FD8F5B1236844
:102FB0001A6812F0040FE7D0DA6912F4006FE3D058
:102FC0004FF400621A622268136823F4D07313600E
:102FD0002268936823F00103936020236367A3674B
:102FE000E367002384F87030032012E0226813683E
:102FF00023F4D07313602268936823F00103936075
:1030000020236367A367002384F87030032000E067
:103010000020BDE8F08130B583B004460023C367CB
:10302000FDF706FE054623681B6813F0080F0CD158
:1030300023681B6813F0040F15D120236367A3676F
:10304000002084F8700003B030BD6FF07E43009321
:10305000034600224FF400112046FFF78EFF0028A0
:10306000E6D00320EFE76FF07E4300932B4600226B
:103070004FF480012046FFF780FF0028DDD00320B9
:10308000E1E768B310B50446436F03B324236367D5
:103090002268136823F0010313602046FFF71CFE2B
:1030A000012813D0636ABBB92268536823F49043A4
:1030B00053602268936823F02A03936022681368A0
:1030C00043F0010313602046FFF7A5FF10BD80F811
:1030D000703000F04FFBD9E72046FFF7E9FEE3E749
:1030E000012070477047000010B58AB00024059495
:1030F0000694079408940994244B5A6942F40022D8
:103100005A615A6902F400220192019A5A6942F402
:1031100080025A615A6902F480020292029A5A6944
:1031200042F400325A615A6902F400320392039A5F
:103130005A6942F480225A615B6903F48023049344
:10314000049B224620214FF09040FEF7CAFD4FF429
:10315000005305930E4B0693079405A90D48FEF7FF
:10316000F5FC20230593012306930794089405A9F1
:103170004FF09040FEF7EAFC224602212820FEF79D
:1031800045FB2820FEF776FB0AB010BD0010024078
:10319000000031100008004800B583B00A4B5A699E
:1031A00042F001025A615B6903F001030193019B44
:1031B000002211461120FEF729FB1120FEF75AFBD1
:1031C00003B05DF804FB00BF0010024008B50948D9
:1031D000094B03604FF4E133436000238360C36015
:1031E00003610C2242618361C36103624362FFF7A2
:1031F00048FF08BD000300200044004008B508480F
:10320000084B036041F6FF0343600023836040F2F4
:10321000BB22C260036143618361FFF7E1FB08BD2C
:103220002C0200200048014008B50848084B036004
:1032300041F6FF0343600023836040F28F12C260B7
:10324000036143618361FFF7CBFB08BD800300206E
:103250000044014070B58AB0002407940894099492
:10326000019402940394049405940694144D4FF031
:10327000A0432B606C60AC602C616C7685F82040BC
:10328000EC620126AE62EC60EE6185F8304004230A
:103290006B612C766C632846FDF74EFD079407A9F9
:1032A0002846FEF717FA01960296049403940594B3
:1032B000069401A92846FEF755F80AB070BD00BF74
:1032C0006C02002030B585B0002401940294039470
:1032D000074D084B2B602846FEF7F0FA01940223B5
:1032E0000393224601A92846FEF740FB05B030BDF6
:1032F0001402002000980040F0B5B3B00090019196
:1033000007EE900AB8EE677ADFED2F7A27EE277A7C
:1033100007EE901AF8EE676AC7EE267AFCEEE77AB7
:1033200017EE903A9EB29B2E00D99B2600248DF872
:103330000C4007E003AD2846FDF718FB234B1B8824
:103340002B5201349B2C09DCA642F3D003AD284656
:10335000FDF70CFB1E4B1B882B52F2E703A8FDF771
:1033600005FB04460098FDF785F815A3D3E9002373
:10337000FDF7EAF806460F460198FDF77BF802468E
:103380000B4630463946FDF709FA02460B4611490D
:1033900003A8204400F062FF0F4B00221A7003A81C
:1033A000FDF7E4FA82B203A90C48FFF789FB0A4B48
:1033B0001B78002BFBD033B0F0BD00BFAFF3008013
:1033C0006666666666660A4000001C43745D000817
:1033D000785D00087C5D0008F801002000030020F3
:1033E00030B597B0202200210DA800F0D3FA0024B8
:1033F0000794089409940A940B94009401940294FD
:10340000039404940594069402250C9501231093CB
:103410001023119313954FF4601315930CA8FEF726
:103420007BFC0F230793089509944FF480630A935C
:103430000B94294607A8FEF7C9FF802300934FF499
:10344000807304936846FFF7C5F817B030BD0000DD
:1034500008B5FDF7CFFBFFF7C3FF0E4B0E4A1A600E
:10346000FFF742FEFFF7B2FEFFF7C8FEFFF7F2FEDE
:10347000FFF792FEFFF726FFFFF7D6FE0748FFF79C
:103480007FF90748FFF77CF900210648FEF73FFA6D
:10349000FEE700BF28020020585A000880030020E1
:1034A0002C02002014020020B0F5005F00D070470D
:1034B00030B589B04FF400512748FEF70BFC0128C6
:1034C00001D009B030BD254A538801339BB25380E7
:1034D000022B02D9134600225A80204B5B88012B15
:1034E00022D08BB1022B2BD01C4B00221A716846C4
:1034F000FDF73CFA82B269461948FFF7E1FA174B2B
:103500001B79002BFBD0DCE76C46164D0FCD0FC4AA
:1035100095E8030044F8040B24F8021B090C217001
:10352000114B124A1A60DFE76C46114D0FCD0FC4E4
:1035300095E8070003C422800B4B0E4A1A60D3E7BC
:103540006C460D4D0FCD0FC495E8030084E80300D1
:10355000054B0A4A1A60C7E700080048F801002036
:1035600000030020885D000828020020585A000847
:10357000A05D0008585B0008BC5D0008585C0008AE
:1035800038B50446114B984203D0114B9C4219D0D8
:1035900038BD104DEA88104B1B6833F812300022FA
:1035A00011460E48FEF79CF9EB8801339BB2EB8085
:1035B0007F2B01D90022EA8020214FF09040FEF7B6
:1035C00095FBE2E70648FDF7C1FCE1E78003002038
:1035D0002C020020F8010020280200201402002004
:1035E0006C020020024B01221A701A71704700BF52
:1035F000F801002008B5FDF749FD40F6FF7180B2E3
:10360000FFF77AFE08BD704782B00A4B9A6942F014
:1036100001029A619A6902F001020092009ADA6945
:1036200042F08052DA61DB6903F080530193019B21
:1036300002B070470010024010B588B00023039319
:1036400004930593069307930368B3F1A04F01D049
:1036500008B010BD03F1704303F504335A6942F01A
:1036600080525A615A6902F080520192019A5A6955
:1036700042F400325A615B6903F400330293029B07
:10368000012303930324049403A94FF09040FEF711
:103690005DFA002221461220FEF7B8F81220FEF74C
:1036A000E9F8D5E700B589B00023039304930593A7
:1036B000069307930268124B9A4202D009B05DF854
:1036C00004FB03F5BC33DA6942F08062DA61DA693F
:1036D00002F080620192019A5A6942F400325A6102
:1036E0005B6903F400330293029B4023039303239B
:1036F000049303A94FF09040FEF728FADEE700BFDD
:103700000098004000B583B00368174A934205D083
:10371000164A934215D003B05DF804FB144B9A6926
:1037200042F400329A619B6903F400330093009BDA
:10373000002203211920FEF769F81920FEF79AF8F4
:10374000E9E70B4B9A6942F480229A619B6903F482
:1037500080230193019B002203211A20FEF756F8D3
:103760001A20FEF787F8D6E70044014000480140E0
:103770000010024010B588B0002303930493059312
:10378000069307930268234B9A4201D008B010BDFC
:10379000044603F5E633DA6942F40032DA61DA69A5
:1037A00002F400320192019A5A6942F400325A61DD
:1037B0005B6903F400330293029B0C2303930223FF
:1037C0000493032306930723079303A94FF0904024
:1037D000FEF7BCF91048114B03601023436000232F
:1037E00083608022C260036143618361C361FEF72D
:1037F00005F958B9084BA3665C6200220121262016
:10380000FEF704F82620FEF735F8BFE7FFF7FBFECA
:10381000F0E700BF00440040BC02002080000240EE
:103820007047FEE7FEE7FEE7FEE770477047704728
:1038300008B5FDF7F1F908BD08B50248FEF72BF908
:1038400008BD00BFBC02002008B50248FDF726FCF9
:1038500008BD00BF6C02002008B50248FEF7AAFFB1
:1038600008BD00BF8003002008B50248FEF7A2FF94
:1038700008BD00BF2C02002008B50248FFF766F91A
:1038800008BD00BF0003002008B54FF40050FEF74C
:1038900035FA08BD08B503460B4A126842B10A4A18
:1038A000106803446A46934206D8074A136008BD6D
:1038B000054A06491160F2E700F042F80C23036064
:1038C0004FF0FF30F3E700BF00020020C8030020E4
:1038D000054BD3F8882042F47002C3F888204FF0DB
:1038E00000629A60704700BF00ED00E0DFF834D05E
:1038F000002103E00C4B5B58435004310B480C4B48
:1039000042189A42F6D30B4A02E0002342F8043BE5
:10391000094B9A42F9D3FFF7DBFF00F017F8FFF7E6
:1039200097FDFEE70030002038600008000000200E
:10393000DC010020DC010020C4030020FEE70000C1
:10394000014B1868704700BF0C00002070B50D4E89
:103950000D4CA41BA4100025A54209D10B4E0C4C04
:1039600002F05EF8A41BA4100025A54205D170BD8D
:1039700056F8253098470135EEE756F82530984738
:103980000135F2E730600008306000083060000860
:103990003460000802440346934200D1704703F8A4
:1039A000011BF9E72DE9FF4755EC104B0D9FDDF8A2
:1039B00030A0002D0E4691461946B8BF22462B4630
:1039C00027F02007BBBF05F100431D4600232D2330
:1039D000B8BF1446462F0B7004D0452F00D10136D6
:1039E000022100E0032103AB019302AB00933246B6
:1039F000534645EC104B00F0DFFC472F804602D1C8
:103A000019F0010F26D0462F08EB060911D198F8BE
:103A10000030302B0AD10022002320462946FDF732
:103A200055F818B9C6F10106CAF80060DAF8003096
:103A300099440022002320462946FDF747F838B96B
:103A40003022039B4B4505D2591C03911A70F8E7AD
:103A5000CDF80C90039B0E9AA3EB0803404613602D
:103A600004B0BDE8F087F7B500290446BABF494263
:103A70002D232B23092904F8022B437020DD0DF19F
:103A800007031F460A2691FBF6F506FB1511303198
:103A9000092D03F8011C03F1FF32294609DC3031FE
:103AA000023B02F8011CBB42224604D3101A03B0A9
:103AB000F0BD1346E7E713F8012B04F8012BF2E7FA
:103AC000302319448370021DC170EFE72DE9F04FD8
:103AD0008DB00C46DDF8588016461F46054601F0AD
:103AE00023FA036804931846FCF740FF00230A9367
:103AF000D8F800300590073323F0070303F10802DC
:103B000094F818A0D4F800B0C8F80020D3E9002336
:103B1000C4E91223D4E9128929F000430793CDF8B0
:103B200018804FF0FF32A74BDDE90601FDF700F8E2
:103B300070BB4FF0FF32A34BDDE90601FCF7DAFF63
:103B400030BB0022002340464946FCF7C9FF10B1B4
:103B50002D2384F843309C4A9C4BBAF1470F8CBF0D
:103B60009046984603232BF00402236122604FF015
:103B70000009009733460BAA2146284600F0E6F9D3
:103B8000013040F08D804FF0FF300DB0BDE8F08F78
:103B900042464B4640464946FCF7CAFF10B18C4AA4
:103BA0008C4BDAE761684B1C4BF480620AA83ED16B
:103BB000062363600023CDE9020309AB009349ECBF
:103BC000108B0DF123032260CDF804A06168284614
:103BD000FFF7E8FE0AF0DF03472B804609D1099B77
:103BE000D81C02DB6268934247DDAAF1020A5FFA41
:103BF0008AFABAF1650F099924D80139524604F1BD
:103C000050000991FFF72FFF0A9A1318012A8146E5
:103C1000236102DC2268D10701D5013323619DF8BD
:103C20002330002BA5D02D2384F84330A1E7BAF12F
:103C3000670F00F07781BAF1470FBBD10029B9D1E6
:103C40000123B6E7BAF1660F19D1002963680CDDCC
:103C5000216113B92268D20702D501330B442361D5
:103C6000099BA3654FF00009D9E713B92268D00773
:103C700001D50233F3E70123F1E74FF0670ADDE9ED
:103C80000932934205DB22682361D107E8D501336D
:103C9000E5E7002BD4BFC3F1020301231344DEE7A1
:103CA00023685A0507D42369424631462846B84757
:103CB00001302BD167E7BAF1650F40F2DC800022BA
:103CC0000023D4E91201FCF701FF002833D00123BF
:103CD000414A31462846B84701303FF454AFDDE948
:103CE00009239A4202DB2368D8070FD5DDE90423B4
:103CF00031462846B84701303FF445AF4FF0000841
:103D000004F11A090A9B013B434509DC23689B0720
:103D100000F10381E0680B9B9842B8BF184634E776
:103D200001234A4631462846B84701303FF42BAFBD
:103D300008F10108E6E7099B002B2BDC0123264A4A
:103D400031462846B84701303FF41DAF099B23B9DF
:103D50000A9B13B92368D907D8D5DDE90423314676
:103D60002846B84701303FF40EAF4FF0000904F188
:103D70001A0A099B5B424B4501DC0A9B94E701232D
:103D8000524631462846B84701303FF4FCAE09F1AF
:103D90000109EEE70A9AA36D9A42A8BF1A46002AC3
:103DA000914607DD1346314642462846B847013062
:103DB0003FF4E9AE04F11A034FF0000B29EAE97968
:103DC000069315E0FFFFEF7FD85D0008D45D000883
:103DD000E05D0008DC5D0008E45D00080123069A50
:103DE00031462846B84701303FF4CDAE0BF1010B08
:103DF000D4F858A0AAEB09035B45EFDCDDE9092301
:103E00009A42D04415DB2368DA0712D40A9B099939
:103E1000A3EB0A02A3EB010A9245A8BF9246BAF1AE
:103E2000000F0EDC4FF000082AEAEA7A04F11A09C2
:103E300019E0DDE9042331462846B8470130E5D1D1
:103E4000A1E65346424631462846B8470130E9D1FB
:103E500099E601234A4631462846B84701303FF4E7
:103E600092AE08F10108DDE909239B1AA3EB0A03CE
:103E70004345EEDC4AE70A9A012A01DCDB073AD522
:103E80000123424631462846B84701303FF47BAE15
:103E9000DDE9042331462846B847013008F101081E
:103EA0003FF471AE0A9B002203F1FF3AD4E91201FC
:103EB0000023FCF70BFEC8B953464246314628465C
:103EC000B84701300ED15EE60123524631462846FE
:103ED000B84701303FF457AE08F101080A9B013B97
:103EE0004345F1DC4B4604F15002DEE64FF000089A
:103EF00004F11A0AF2E70123DFE701234A463146BB
:103F00002846B84701303FF43EAE08F10108E368A7
:103F10000B9A9B1A4345F0DCFCE64FF0000804F1D5
:103F20001909F4E700293FF48BAE0023CDE9020321
:103F300009AB009349EC108B2260CDF804A00DF181
:103F400023032846FFF72EFD804648E62DE9F0477B
:103F500091461F468A680B69DDF820809342B8BFFE
:103F60001346C9F8003091F8432006460C4612B1BA
:103F70000133C9F800302368990642BFD9F80030F0
:103F80000233C9F80030256815F0060507D104F1A1
:103F9000190AE368D9F800209B1AAB4228DC94F890
:103FA00043302268003318BF012392062DD404F158
:103FB000430239463046C047013020D02368E568C7
:103FC000D9F8002003F00603042B08BFAD1AA3683C
:103FD00022690CBF25EAE57500259342C4BF9B1AF0
:103FE000ED184FF000091A344D451AD1002008E0B1
:103FF0000123524639463046C047013003D14FF0C5
:10400000FF30BDE8F0870135C3E7E1185A1C3020C6
:1040100081F84300224494F8451082F8431002339B
:10402000C5E70123224639463046C0470130E6D075
:1040300009F10109D8E700002DE9F04301F1430C33
:104040000C46097E85B06E291746064698460C9A9E
:1040500000F0B38022D8632936D00AD8002900F0B6
:10406000B980582900F0838004F1420584F8421099
:1040700032E0642901D06929F6D120681368050669
:1040800003F104012AD51B681160002B03DA2D22ED
:104090005B4284F843206F480A2239E0732900F01C
:1040A0009D8008D86F2920D07029DDD1236843F086
:1040B0002003236003E0752917D07829D4D1782311
:1040C00084F84530644855E01368191D1B68116079
:1040D00004F1420584F8423001238CE01B68116032
:1040E00010F0400F18BF1BB2CFE713682568181DEA
:1040F0001060280601D51B6802E06806FBD51B8806
:1041000054486F2914BF0A220822002184F8431062
:104110006568A560002DC0F29580216821F004013A
:104120002160002B3DD1002D40F08E806546082A8D
:104130000BD12368DB0708D5236962689A42DEBF8A
:10414000302305F8013C05F1FF35ACEB0503236195
:10415000CDF800803B4603AA21463046FFF7F6FE25
:1041600001304DD14FF0FF3005B0BDE8F083394844
:1041700084F84510136821681D1D1B6815600A0628
:104180000BD5CA0744BF41F0200121601BB922684A
:1041900022F0200222601022B7E74D0648BF9BB2F2
:1041A000EFE76546B3FBF2F102FB1133C35C05F8A0
:1041B000013D0B460029F5D1B9E71368256861690F
:1041C000181D106028061B6801D5196002E06A06F8
:1041D000FBD51980002323616546B9E71368191DD3
:1041E00011601D68626800212846FCF7C9FB08B110
:1041F000401B606063682361002384F84330A7E7B5
:1042000023692A4639463046C0470130AAD0236880
:104210009B0713D4E068039B9842B8BF1846A3E7F6
:1042200001234A4639463046C04701309AD001350D
:10423000E368039A9B1AAB42F2DCEBE7002504F13A
:104240001909F5E7002BACD1037884F8423004F16A
:1042500042056CE7E65D0008F75D00080EB400B5A6
:104260009CB01DAB029006906FF000410948079189
:104270000491094953F8042B05910068019302A9A0
:1042800001F05EFA029B00221A701CB05DF804EB8C
:1042900003B070470C0000200802FFFF2DE9F74F24
:1042A00003690C69A3428046C0F28280013C01F19F
:1042B00014074FEA840C00F1140657F8245056F8FE
:1042C000240006EB0C03013507EB0C090193B0FB4E
:1042D000F5F595B34FF0000A3846B646D34650F888
:1042E000042B93B205FB03A34FEA134A9BB2ABEB3B
:1042F0000303120CDEF800B005FB02A213FA8BF3E5
:104300004FEA124A1FFA82FBDEF80020CBEB124282
:1043100002EB23429BB243EA024381454FEA224B20
:104320004EF8043BDBD256F80C3033B9019B043B0A
:104330009E421A4630D3C8F81040404601F02AF891
:10434000002825DB013530464FF0000C57F8042BD0
:10435000D0F800E093B2ACEB0303120C13FA8EF327
:10436000C2EB1E4202EB23429BB243EA0243B94531
:104370004FEA224C40F8043BE8D256F8242006EBE2
:1043800084032AB9043B9E421A460BD3C8F8104056
:10439000284603B0BDE8F08F1268043B002ACAD15A
:1043A000013CC5E71268043B002AEFD1013CEAE773
:1043B0000020EEE7000000002DE9F04F57EC106BF5
:1043C00097B0456A069104460B921293DDF88080FF
:1043D000CDE900673DB9102000F0B4FD6062C0E98E
:1043E00001550560C560636A196851B15A684A6031
:1043F000012393408B60204600F0EBFD636A0022AE
:104400001A603B1EBBBF23F000430193002301222F
:10441000ACBFC8F80030C8F80020AF4BDDF804800E
:1044200033EA080314D1129A42F20F731360009B0F
:1044300023B9C8F31300002800F04285219BDFF860
:10444000ACB2002B00F044850BF1030300F03EBD3D
:10445000DDE900670022002330463946FCF736FBD1
:10446000814668B1129A01231360219B002B00F052
:1044700024859A4B219A03F1FF3B136000F028BD7D
:1044800014AA15A947EC106B204600F0FAFFC8F3F8
:104490000A550490002D7CD0C7F3130343F07F5BD3
:1044A000B2464BF4401BA5F2FF35CDF84C900022EC
:1044B0008B4B50465946FBF78FFE81A3D3E900236F
:1044C000FCF742F880A3D3E90023FBF787FE0646FA
:1044D00028460F46FBF7CEFF7DA3D3E90023FCF768
:1044E00033F802460B4630463946FBF777FE064660
:1044F0000F46FCF733FB0022824600233046394644
:10450000FCF7EEFA48B15046FBF7B4FF32463B46A3
:10451000FCF7DCFA08B90AF1FF3ABAF1160F59D8DC
:10452000704901EBCA01DDE90023D1E90001FCF784
:10453000F5FA002850D00AF1FF3A00230F93149B9C
:104540005D1BB5F1010849BFC5F1010300230593C7
:104550004FF0000858BF0593BAF1000F3EDB00236F
:10456000D044CDF838A00793069B092B00F2908029
:10457000052BC4BF043B0693069BA3F10203CCBFEB
:1045800000250125032B00F28F80DFE803F07D7FFB
:104590003171DDE914531D4405F23240202813DD4A
:1045A000C0F14000009B08FA00F805F2124023FA1F
:1045B00000F048EA0000FBF74DFF01238246A1F11D
:1045C000F87B013D139372E7009BC0F1200003FAD2
:1045D00000F0F0E70123B1E70F90B0E7059BA3EBF4
:1045E0000A030593CAF10003079300230E93BBE768
:1045F00001230A930B9B002B59DD02939946666AAF
:1046000000227260042202F114009842716853D9AA
:10461000204600F0AAFC636A3060B9F10E0FD3F8AF
:1046200000B000F2E680002D00F0E3809DED007BFD
:10463000BAF1000F8DED107B74DD2A4A0AF00F03EA
:1046400002EBC30393ED007B4FEA2A16F0068DEDD3
:10465000087B65D5244BDDE91001D3E90823FCF77D
:104660009DF8CDE9000106F00F0603251E4F4CE032
:1046700001230A930B9B534403F1010902934B4618
:10468000012BB8BF0123BAE70023B2E70023F0E70C
:104690000125002306930A954FF0FF3302939946B4
:1046A000002212230B92AAE701230A93F4E70123C5
:1046B000029399461A46F5E7013171605200A2E76C
:1046C00061436F63A787D23FB3C8608B288AC63F18
:1046D000FB799F501344D33F0000F07FE55D000855
:1046E0000000F83F405E0008185E0008115E0008F8
:1046F000F10708D5DDE90801D7E90023FBF724FF1E
:10470000CDE90801013576100837002EF0D1DDE93A
:104710000823DDE90001FCF741F8CDE900011AE0CA
:104720000225A3E700F0A080CAF100069F4BA04F2E
:1047300006F00F0203EBC203D3E90023DDE9100109
:10474000FBF702FFCDE90001361100230225002E00
:104750007FD1002BE1D10F9B002B00F08780DDE99A
:1047600000670022934B30463946FCF7B9F9002820
:104770007CD0B9F1000F79D0029B002B35DD0AF116
:10478000FF330893394600228B4B3046FBF7DCFEA3
:10479000CDE90001029F01352846FBF76BFEDDE9FC
:1047A0000023FBF7D1FE0022844BFBF717FD0546E3
:1047B000A1F15076002F5DD10022814BDDE900018F
:1047C000FBF70AFD2A463346CDE90001FCF7A6F9BE
:1047D000002840F088822A4606F10043DDE9000106
:1047E000FCF77EF9002840F07C82DDE91023CDE95A
:1047F0000023159B002BC0F25081BAF10E0F00F37D
:104800004C816A4B03EBCA0393ED007B0B9B002B9F
:104810008DED027B80F2D880B9F1000F00F3D480D7
:1048200040F05E820022664B51EC170BFBF78CFECA
:10483000DDE90023FCF768F94F464E46002840F0BA
:10484000348231230BF101058BF800300AF1010AA3
:104850002FE2F20705D5D7E90023FBF775FE0135F6
:1048600001237610083772E7022574E7CDF820A0FF
:104870004F4691E74D4B03EBC70353E902010A9BF7
:10488000002B47D002460B4600204E49FBF786FF1F
:104890002A463346FBF7A0FCCDE90C015D46DDE975
:1048A0000001FCF75BF90646FBF7E4FD02460B4608
:1048B000DDE90001FBF790FC303605F8016BDDE91E
:1048C0000C23CDE90001FCF70BF9002863D1DDE9E9
:1048D000002300203749FBF77FFCDDE90C23FCF7C0
:1048E000FFF8002840F0B780A5EB0B039F427FF74D
:1048F0007CAF0022304BDDE90C01FBF725FE0022E6
:10490000CDE90C012C4BDDE90001FBF71DFECDE9E3
:104910000001C4E72A463346FBF716FECDE90C0139
:104920000BEB07055E46DDE90001FCF717F90746CA
:10493000FBF7A0FD303702460B46DDE90001FBF72F
:104940004BFC06F8017BAE42CDE900014FF00002BE
:1049500026D11C4BDDE90C01FBF740FC02460B465F
:10496000DDE90001FCF7DAF8002874D1DDE90C2359
:1049700000201449FBF730FC02460B46DDE900013C
:10498000FCF7AEF800283FF430AF15F8013C302BAF
:1049900005F1FF3202D0DDF820A04AE01546F4E729
:1049A000054BFBF7D1FDCDE90001BCE7405E0008F7
:1049B000185E00080000F03F0000244000001C408A
:1049C000000014400000E03FDDE900675D46DDE9DE
:1049D000022330463946FBF7E1FEFCF7BFF880467C
:1049E000FBF748FDDDE90223FBF7AEFD02460B466F
:1049F0003046394608F13006FBF7EEFB05F8016B4F
:104A0000A5EB0B06B14502460B4639D1FBF7E6FB99
:104A1000DDE9022306460F46FCF780F8C8B9DDE958
:104A2000022330463946FCF751F810B118F0010F57
:104A30000FD10499204600F0CCFA0023129A2B7073
:104A40000AF101031360219B002B00F041821D60DD
:104A50003EE2CDF820A015F8012C392A05F1FF33EC
:104A600008D19B450AD1089B0133089330238BF86A
:104A700000305B461A7801321A708CE71D46EAE76F
:104A800000229B4BFBF760FD0022002306460F46E9
:104A9000FCF71CF800289AD0CBE70A9A002A00F00D
:104AA0008B80069A012A6EDC139A002A67D003F2E3
:104AB0003343079F059D059A01211A44204605921C
:104AC000984400F026FB0646002D0CDDB8F1000FDF
:104AD00009DD4545059A2B46A8BF4346D21A0592E3
:104AE000ED1AA8EB0308079BEBB10A9B002B67D0DC
:104AF0008FB131463A46204600F0AAFB049A01469F
:104B00000646204600F00EFB04990890204600F06F
:104B100060FA089B0493079BDA1B04D00499204693
:104B200000F096FB04900121204600F0F2FA0E9B63
:104B30000746002B00F0D0811A460146204600F0BF
:104B400087FB069B012B074640DC009B002B39D1DD
:104B5000019BC3F31303002B36D1019B23F00043C9
:104B60001B0D1B052BB1059B0133059308F10108B3
:104B7000012307930E9B002B2AD1012030E0149BC8
:104B8000C3F1360395E7079B09F1FF37BB42BFBF6F
:104B9000079B0797FA1A0E9BBBBF9B180E93DF1B50
:104BA0000027B9F1000FB5BF059B059DA3EB0905D3
:104BB0004B46B8BF00237EE7079F059D0A9E83E70B
:104BC000079AABE70023D4E7009BD2E700230793C3
:104BD0003B6907EB8303186900F04DFAC0F1200030
:104BE000404410F01F0047D0C0F12003042B3BDDF0
:104BF000059BC0F11C000344059305448044059BBC
:104C0000002B05DD1A460499204600F06FFB049046
:104C1000B8F1000F05DD39464246204600F066FB3C
:104C200007460F9B53B33946049800F0B3FB0028A6
:104C300024DA00230A220499204600F0E1F90A9BB5
:104C400004900AF1FF3A002B00F04D810023314619
:104C50000A22204600F0D4F9029B002B06464FDCC6
:104C6000069B022B4CDD11E0C9D0059A1C331A4477
:104C700005921D449844C2E70346F6E7B9F1000FD8
:104C800038DC069B022B35DDCDF80890029B63B91A
:104C900039460522204600F0B3F90146074604983C
:104CA00000F078FB00283FF7CCAD0B9B5D466FEA28
:104CB000030A4FF000093946204600F08AF9002E19
:104CC0003FF4B7AEB9F1000F05D0B14503D0494666
:104CD000204600F07EF93146204600F07AF9A8E639
:104CE00000273E46E1E7DDF820A03E46A9E500BFEB
:104CF000000024400A9BCDF80890002B00F0FA80B9
:104D0000002D05DD31462A46204600F0EFFA064622
:104D1000079B002B4CD07168204600F026F93269C1
:104D200002320546920006F10C010C3000F012F937
:104D300001222946204600F0D9FA009BCDF814B094
:104D400003F00103B1460793064639460498FFF77E
:104D5000A5FA4946054600F13008049800F01AFB10
:104D6000324600903946204600F02EFBC3680246CA
:104D700003BB01460890049800F00CFB089A034618
:104D800011462046089300F024F9089BA3B9069A1F
:104D900092B9079A82B9B8F1390F29D0009B002B3C
:104DA00001DD05F13108059B5D1C83F8008082E779
:104DB0003046C2E70123E3E7009A002A04DB25D14D
:104DC000069A1ABB079A0ABB002BECDD0122049954
:104DD000204600F08BFA3946049000F0DBFA0028F8
:104DE00003DCE0D118F0010FDDD0B8F1390FD8D1D4
:104DF000059B059A5D1C3923137015F8013C392B6E
:104E000005F1FF324FD00133137054E7059A002BA0
:104E100002F1010506DDB8F1390FE9D008F101080A
:104E2000059BC2E7029A05F8018CA5EB0B039342A0
:104E300021D000230A220499204600F0E1F8B14570
:104E400004904FF000034FF00A024946204605D176
:104E500000F0D6F881460646059576E700F0D0F8D2
:104E60003146814600230A22204600F0C9F8064652
:104E7000F2E74FF0000901220499204600F036FACB
:104E80003946049000F086FA0028B6DC02D118F00A
:104E9000010FB2D115F8013C302B05F1FF327FF440
:104EA0000AAF1546F6E7934505D131230AF1010A09
:104EB0008BF80030FFE615469FE7DFF864B007E0A7
:104EC000219BDFF860B01BB10BF10803219A13603E
:104ED000584617B0BDE8F08F069B012B7FF735AE23
:104EE0000E9B079349E6029B002B03DC069B022BDB
:104EF0003FF7CCAE5D4639460498FFF7CFF900F195
:104F0000300805F8018B029AA5EB0B039A42B0DD3D
:104F100000230A220499204600F072F80490EAE780
:104F2000E45D0008085E0008044B1B68186A044B27
:104F3000002808BF1846F030704700BF0C00002062
:104F400070000020024B0146186800F045BB00BF0E
:104F50000C00002010B5431E0A44914200D110BD40
:104F600011F8014B03F8014FF7E770B5456A0446A5
:104F70000E463DB91020FFF7E5FF6062C0E901551C
:104F80000560C560656AEB6883B1636ADB6853F8E6
:104F90002600B8B9012101FA06F56A1D92002046E3
:104FA00000F0BEFA60B1C0E901650EE021220421E3
:104FB000204600F0B5FA636AE860DB68002BE4D1B4
:104FC000002070BD026843F826200023C0E90333A7
:104FD000F7E770B5446A06460D463CB91020FFF766
:104FE000B1FF7062C0E901440460C4603DB1736AFE
:104FF0006A68DB6853F82210296043F8225070BDBC
:105000002DE9F0410D691F4606460C4601F1140CCE
:105010000023DCF8000081B202FB01710F0C000CD0
:1050200002FB007089B2013301EB00419D424FEA5F
:1050300010474CF8041BECDCD7B1A368AB4212DC80
:10504000616830460131FFF790FF2269023204F1B6
:105050000C01804692000C30FFF77CFF2146304661
:10506000FFF7B7FF444604EB850301355F61256117
:105070002046BDE8F081020C12040346B2B90304D5
:10508000102013F07F4F04BF1B02083013F0704F45
:1050900004BF1B01043013F0404F04BF9B000230DB
:1050A000002B06DB5B0003D5013070470020E8E7EA
:1050B00020207047036813F0070201460BD0DA077F
:1050C00023D4980749BF5B089B0801200B605CBF95
:1050D0000B600220704798B2A8B91B0C102013F087
:1050E000FF0F04BF1B0A08301A0704BF1B09043056
:1050F0009A0704BF9B080230DA0702D45B0806D087
:1051000001300B6070471046E9E70020704720200F
:10511000704710B50C460121FFF727FF01224461BB
:10512000026110BD2DE9F74F14460A6923699A42BE
:10513000B8BF0B468846BCBFA0461C46D8F81070C6
:10514000D4F81090D8F80830D8F8041007EB090606
:10515000B342B8BF0131FFF708FF00F1140505EBBA
:10516000860E2B460022734516D304F1140208F173
:10517000140102EB890301EB87070093009B019266
:1051800093420CD8002E03DD5EF8043D002B5DD069
:10519000066103B0BDE8F08F43F8042BE3E7B2F8F3
:1051A00000B0BBF1000F23D08946AC464FF0000899
:1051B00059F8044BDCF800A0A3B21FFA8AFA0BFBE3
:1051C00003A34FEA144ADCF8004043444FEA144872
:1051D0000BFB0A8404EB1344E2469BB243EA04430C
:1051E0004F454FEA14484AF8043B2BD8CCF80480CA
:1051F000019BB3F802A00432BAF1000F20D02B6853
:105200008946A8464FF0000BB9F800C0B8F8024034
:105210000AFB0C445C44C4469BB243EA04434CF88A
:10522000043B59F8043BB8F804B01B0C0AFB03B369
:1052300003EB14434F454FEA134B05D8C8F804302D
:1052400004359BE7D446B3E7E046DDE7013E99E746
:105250002DE9F843154612F0030206460F4607D023
:10526000013A214C002354F82220FFF7C9FE0746DB
:10527000AD1035D0746A3CB91020FFF763FE706240
:10528000C0E901440460C460D6F82480D8F808401E
:105290004CB940F271213046FFF73BFF0023C8F8BC
:1052A0000800044603604FF00008EB070AD53946B2
:1052B00022463046FFF736FF394681463046FFF733
:1052C00088FE4F466D100BD0206838B92246214623
:1052D0003046FFF727FF2060C0F800800446E4E76F
:1052E0003846BDE8F88300BF085F00082DE9F047A5
:1052F0000C464FEA621A236949680AEB0309A3685E
:105300000746164609F10105AB4232DB3846FFF786
:105310002CFE0023804600F114011A4653452BDB76
:1053200020692AEAEA7A04F1140316F01F0201EB5D
:105330008A0103EB800C25D0C2F1200E00201E68EC
:105340008A46964030434AF8040B53F8040B9C45B8
:1053500020FA0EF014D8486008B109F10205013DA9
:105360003846C8F810502146FFF733FE4046BDE8E6
:10537000F08701315B00C7E741F823200133CDE717
:105380005146DCE7043953F8042B41F8042F9C45BF
:10539000F9D8E4E703690A699B1A30B50CD1920089
:1053A000143014318418114454F8045D51F8042D5C
:1053B000954203D005D30123184630BDA042F3D354
:1053C000FAE74FF0FF33F7E72DE9F0470D460746C0
:1053D000114628461446FFF7DDFF061E08D1314668
:1053E0003846FFF7C2FD0123C0E90436BDE8F08767
:1053F000A4BF23462C4638466168A6BF1D4600263A
:105400000126FFF7B2FD2B69C660266905F1140974
:1054100004F1140202EB860709EB830800F114057E
:105420004FF0000E52F804AB59F8044B1EFA8AF103
:10543000A3B2C91A230CC3EB1A4303EB214389B26D
:105440004FEA234EC84541EA0343944645F8043BDE
:10545000E8D8BC4504D355F8043D83B10661C5E7DF
:105460005CF8041B1EFA81F31A1402EB11429BB282
:1054700043EA02434FEA224E45F8043BE9E7013E86
:10548000E9E72DE9F7430E46012159EC108B15464B
:10549000FFF76BFDC9F30A540746C9F3130334BB86
:1054A0000193B8F1000327D002A840F8083DFFF7A8
:1054B00001FE0099F0B1019AC0F1200302FA03F352
:1054C0000B43C2407B610192019BBB61002B14BF67
:1054D000022101213961C4B1A4F23344044434608F
:1054E000C0F135002860384603B0BDE8F08343F4CE
:1054F0008013D5E77961E7E701A8FFF7DBFD019BA2
:105500007B61012139612030E5E707EB8103A0F2DF
:10551000324030601869FFF7AEFDC0EB4110E1E7A3
:1055200038B502FB01F4214600F056F8054618B1E3
:1055300022460021FEF72EFA284638BD38B505462A
:10554000002945D051F8043C0C1F002BB8BFE418CB
:1055500000F029FA1F4A1368104633B963601460DB
:105560002846BDE8384000F01FBAA3420CD9216894
:105570006218934204BF1A685B68636004BF5218E4
:1055800022600460ECE713465A680AB1A242FAD9D5
:1055900019685818A0420BD120680144581882425B
:1055A0001960DDD1106852685A6001441960D7E76C
:1055B00002D90C232B60D3E7206821188A4204BF4C
:1055C00011685268626004BF091821605C60C7E717
:1055D00038BD00BF0802002070B5CD1C25F00305C2
:1055E00008350C2D38BF0C25002D064601DBA942DD
:1055F00003D90C233360002070BD00F0D4F9214A98
:105600001468214691B9204C23681BB9304600F03C
:105610008FF920602946304600F08AF9431C24D1D6
:105620000C233360304600F0BFF9E4E70B685B1BE6
:1056300018D40B2B0FD90B60CD50CC18304600F08E
:10564000B3F904F10B00231D20F00700C31AD3D0D7
:105650005A42E250D0E78C424B6816BF6360136039
:105660000C46EBE70C464968CCE7C41C24F0030465
:10567000A04205D0211A304600F05AF90130CFD0AF
:105680002560DBE7080200200C0200202DE9F0472E
:105690008E689E4282460C469046994637D88A8943
:1056A00012F4906F31D0256809696F1A6569022379
:1056B00005EB450595FBF3F509F101033B449D42DC
:1056C00038BF1D46530530D52946FFF785FF0646EE
:1056D00050B90C23CAF80030A38943F04003A381DA
:1056E0004FF0FF30BDE8F0873A462169FFF732FC02
:1056F000A38923F4906343F08003A381266165614D
:105700003E44ED1B2660A5604E464E4500D94E46F0
:1057100032464146206800F02DF9A3689B1BA36028
:1057200023681E4426600020DCE72A4600F03DF98D
:1057300006460028E2D121695046FFF7FFFEC8E780
:105740002DE9F04F1D468B891F069DB080460C4603
:1057500016460FD50B696BB94021FFF73DFF20605E
:10576000206128B90C23C8F800304FF0FF30C8E0A2
:10577000402363610023099320238DF829303023CF
:105780008DF82A3003954FF0010B37463D4615F84A
:10579000013B0BB1252B3ED1B7EB060A0BD053468C
:1057A000324621464046FFF771FF013000F0A480E9
:1057B000099B534409933B78002B00F09D80002304
:1057C0004FF0FF32CDE90523049307938DF8533052
:1057D0001A932F46052217F8011B5048FBF7D0F803
:1057E000049BD0B9D90644BF20228DF853201A0754
:1057F00044BF2B228DF853202A782A2A15D0079AE5
:105800002F4600200A25394611F8013B303B092B71
:105810004DD9B8B10FE02F46B8E7404A801A0BFACD
:1058200000F0184304903D46D3E7039A111D126817
:105830000391002A01DB079204E0524243F0020385
:10584000079204933B782E2B0CD17B782A2B33D1F3
:10585000039B1A1D1B680392002BB8BF4FF0FF3348
:10586000023705932E4D397803222846FBF788F836
:1058700038B14023401B03FA00F0049B0343013777
:105880000493397827488DF8281006227E1CFBF7F0
:1058900077F8002838D0244B13BB039B073323F041
:1058A000070308330393099B4B4409936DE705FBFA
:1058B000023201200F46A6E700230137059319465F
:1058C0000A25384610F8012B303A092A03D9002B53
:1058D000C8D00591C6E705FB012101230746F0E783
:1058E00003AB00932246114B04A94046FEF7EEF8A5
:1058F000B0F1FF3F8146D6D1A3895B063FF535AFB6
:1059000009981DB0BDE8F08F03AB00932246074B0A
:1059100004A94046FEF790FBEAE700BF145F0008C9
:105920001A5F00081E5F0008CD3A00088D56000877
:1059300038B5064C0023054608462360FDF7AAFF4C
:10594000431C02D1236803B12B6038BDC003002083
:1059500082B001B901A942B14BB113780B60127842
:10596000101C18BF012002B070471046FBE76FF013
:105970000100F8E7884210B501EB020307D8421E88
:1059800099420AD011F8014B02F8014FF8E783421F
:10599000F5D98118D21AD34200D110BD13F8014DA8
:1059A00001F8014DF7E770477047F8B50746144610
:1059B0000E4621B91146BDE8F840FFF70DBE22B9E9
:1059C000FFF7BCFD25462846F8BD00F021F8A042AF
:1059D0000FD221463846FFF7FFFD05460028F2D0DA
:1059E00031462246FFF7B6FA31463846FFF7A6FDA4
:1059F000E9E73546E7E749B1FF2A85BF8A23036017
:105A00000A704FF0FF3098BF01207047084670477A
:105A100051F8043C181F002BBCBF0B58C01870472E
:105A2000F8B500BFF8BC08BC9E467047F8B500BF8B
:085A3000F8BC08BC9E4670475B
:105A380002030405060708090A0B0C0D0E0F1010C7
:105A48000102030405060708090A0B0C0D0E0F10C6
:105A580000086108C20823098309E209400A9D0A6F
:105A6800F80A510BA80BFD0B4F0C9E0CEB0C350DD7
:105A78007B0DBE0DFD0D380E700EA40ED30EFE0E5E
:105A8800250F470F650F7E0F920FA20FAD0FB30FB3
:105A9800B40FB00FA80F9B0F890F720F560F360F58
:105AA800120FE90EBC0E8A0E550E1B0EDE0D9D0D53
:105AB800580D100DC50C770C260CD30B7D0B250B40
:105AC800CB0A6F0A120AB3095309F308920830087F
